:020000023000CC
:105C000000800020C98E0300098F03000B8F030062
:105C10000000000000000000000000000000000084
:105C20000000000000000000000000000D8F0300D5
:105C300000000000000000000F8F0300118F030020
:105C4000138F0300138F0300138F0300138F0300C0
:105C5000138F030000000000138F0300138F030055
:105C6000138F0300138F0300138F0300138F0300A0
:105C7000138F030041710300138F0300138F030080
:105C8000138F03009D620300138F0300138F030023
:105C900059630300138F0300A1910300138F0300C6
:105CA000138F0300138F03000000000000000000AA
:105CB00000000000000000000000000000000000E4
:105CC00008B5064B064803331B1A062B00D808BD3F
:105CD000044B002BFBD09847F9E7C0465426002020
:105CE000542600200000000008B50748074B1B1A87
:105CF0009B10DA0FD318591000D108BD044A002AAE
:105D0000FBD09047F9E7C0465426002054260020D7
:105D10000000000010B5074C2378002B09D1FFF7D5
:105D2000CFFF054B002B02D0044800E000BF012349
:105D3000237010BD6C26002000000000E4AB0300BF
:105D400008B5094B002B03D00848094900E000BF03
:105D500008480368002B03D0074B002B00D098475E
:105D6000FFF7C2FF08BDC04600000000E4AB03001F
:105D7000702600205026002000000000144B002B4D
:105D800000D1124B9D46402292029A1A924600215F
:105D90008B460F461148124A121A00F07DF80D4B3F
:105DA000002B00D098470C4B002B00D098470020C8
:105DB000002104000D000B4800F016F800F046F832
:105DC0002000290002F07AFA00F016F8000008001E
:105DD0000080002000000000000000006C26002071
:105DE00018330020255E030008B5011C0020021CAA
:105DF000031C00F059F808BD084B10B5041C002B1B
:105E000002D0002100F0A8F8054B1868836A002B27
:105E100000D09847201C00F00FF9C046595F0300DE
:105E200050A8030038B5074B074C1D1CE41AA410FA
:105E3000002C04D0013CA300EB589847F8E704F08D
:105E4000FFFC38BD4C2600205026002070B50E4BBC
:105E50000E4D0024ED1AAD101E1CAC4204D0A30060
:105E6000F35898470134F8E704F0E4FC084B094D77
:105E70000024ED1AAD101E1CAC4204D0A300F35850
:105E800098470134F8E770BD4826002048260020D6
:105E9000482600204C260020031C8218934202D082
:105EA00019700133FAE77047F7B5284D061C2C68C6
:105EB0000191171C0093002C01D1254C2C606168C6
:105EC0001F2912DD234B002B02D1012040423CE070
:105ED0008C2000E000BF041EF7D02A680023026077
:105EE000021C8832436028601360002E25D0251CD8
:105EF0008835286800280ED1164B002BE5D0842069
:105F0000400000E000BF0028DFD0031C0022FC336B
:105F10005A609A602860626801219300C31880C3A8
:105F20009140FC300A1C4168114341600099D967D7
:105F3000022E02D183681A438260636801995A1C59
:105F400002339B00626000201951FEBD142700201F
:105F50008826002000000000F0B587B0059004916D
:105F6000334F3C68002C61D0231C88331B6801939D
:105F7000636801985D1E01339B00AE00E31886192B
:105F80000293002D3BDB0499002907D0019A002AD7
:105F90002FD0331C80331B688B422AD16268029851
:105FA000013A0368954201D1656002E0029900223E
:105FB0000A60002B1DD0626801980392002806D069
:105FC000011CFC3101224868AA40104201D19847C7
:105FD00008E08968114203D105983168984701E0CB
:105FE00030689847039962689142B9D13B68A342EF
:105FF000B6D10298013D0438043E0290C1E70D4B32
:10600000002B13D06168236800290CD1002B0AD023
:10601000019A3B60002A02D0101C00E000BF201C47
:1060200000E000BF9DE7271C1C1C9BE707B0F0BDEC
:106030001427002000000000FEE7C046032310B52F
:106040001340041C0720002B10D109480260481C93
:10605000C00080B2121807480260074A181C13706B
:10606000064A1370064A1480064A118010BDC046C5
:10607000182700201C27002023270020222700208B
:106080002027002024270020F0B5284B85B001925E
:106090001A8800900C1C09208A4244D36E460F36A1
:1060A0000025301C357000F0BFFB214B214A1B78C6
:1060B0001088DBB29C46204B2A1C1978C9B2814259
:1060C00001D24A1CD2B21D4F3D1C624509D01D7839
:1060D0001978EDB2C9B20022814201D24A1CD2B273
:1060E0001A70307800F0BEFB0420BD421BD0144F64
:1060F000EE003A689319019A1A60009A002A10D0AB
:10610000002C0ED0094B111C18880E4B4543186803
:10611000221C401904F07DFB3B6800209E19B480CE
:1061200001E00020988005B0F0BDC0462027002087
:10613000222700202427002023270020FFFF000023
:10614000182700201C27002010B5104C104A237877
:1061500012789A4219D022780E49D2B20968D30037
:10616000CB180D4908880D49424308689988801862
:106170001B6898470A4B22781988D2B200239142B3
:1061800001D9531CDBB22370DFE710BD22270020AA
:106190002327002018270020202700201C2700206C
:1061A0002427002030B50A4A517894784B1CDBB282
:1061B000E41A651EAC416442234014789C4205D029
:1061C0000370182041435068401800E0002030BDA3
:1061D00034270020084B09491A682F23C046C046BF
:1061E000C046C046C046C046C046C0468A4200D0EF
:1061F000C046013BF2D17047442600200024F40041
:1062000038B580220C4B9202DA670C4C8023D222E4
:106210005B029200A350C22292000125A350656048
:10622000FFF7D8FF064BA56000241C60FFF7D2FFE4
:10623000044B1C7038BDC04604E100E00010014072
:106240002827002048270020F0B585B06C460F3481
:106250006E460025071C0E36201C0191257000F0AB
:10626000E3FA301CFFF79EFFA84206D0019B47606F
:1062700003703278074B5A7000E00425207800F054
:10628000F1FA002D03D18022034B52035A60281CDF
:1062900005B0F0BD34270020FCE100E0F8B5244B48
:1062A00000225A649A64DA641A655A609A60214B33
:1062B0001B6893423AD020492048141C4558204975
:1062C00009686D1A2D022D0A1A6895421AD3AD1A63
:1062D000A4181A7CDE69002A10D000221A74194A08
:1062E0005F6912689969002A06D0381C9047002817
:1062F00004D001F0E0FF01E0081CB847002E01D0F7
:10630000331CE1E7104B1978104B1A788A4205D1FB
:106310000132D2B2022A00D100221A701A780C4B34
:106320009200D45080220B4B52035A60F8BDC046F5
:10633000FC1001402C270020040500000010014043
:1063400028270020302700203D2700203C27002060
:1063500040270020FCE100E0F0B5B34B89B018689D
:10636000B24A0290B24811780078884210D00131C8
:10637000C9B2022900D1002111701178AD4A8900FB
:1063800088580299012442181202120A1A6001E088
:106390000020041CA84DA94A2D685668039555781D
:1063A000049601951D68A64B11781B789278069388
:1063B000039B0592019A914223D018224A43059EDD
:1063C000049F0131C9B2BA188F1B7E1EB7417E42AD
:1063D00031401678022E02D0032EEBD10BE0576825
:1063E0001E1CBC461A1C002AE4D0624500D105E1FF
:1063F000161CD269F7E7002BDCD000221A74DB6987
:10640000F9E789498C4A0D60069E8D4D13602E7008
:106410000D1C002C05D1039FDB1B591E8B41DBB2E9
:106420001FE00024211C002B19D01E68B04203D2AB
:10643000301A1360186013E0801B891900261E6053
:10644000DE690196DE68002E07D0029FDC617F18AE
:106450003F023F0A5F609E601C1C019BE3E71360E4
:10646000012312682D680292744A51685078049191
:1064700073490790967809780596069116780299DF
:106480000395002C02D0221CE46920E0079FBE4245
:106490005CD018207043049F0136059AF6B2381874
:1064A000964200D1261C077842680D1C012F4BD163
:1064B000177C002F48D185685560C56895600569CF
:1064C000D560406990610698002800D057605568F3
:1064D000039801952F1A5B4D3F023F0A9068AF4227
:1064E00001D8381809E0019D039F7F1B3D022D0A4A
:1064F000A84201D9401B00E00020106001250020C7
:10650000506090601574D06181421CD01568086895
:10651000854202D98C46081C09E0451B0D60D161FB
:1065200011E0ED1BC769002F08D08446381C0768AE
:10653000BD42F6D87F1B0760071C60461560D76117
:106540000D1CC26100E0151C291C9AE73A4A02980A
:1065500011603A4A1670814201D1002B49D00029BE
:1065600045D00968384C394B2F4A0291E5581268DA
:10657000374E0392AA1A1202120A03320492327898
:10658000002A13D18023D1225B029200A350C122A2
:106590009200A350C0212F4B802292024900012774
:1065A0005A501A602760FFF715FE3770049B029E51
:1065B000B34200D2331C039FA822DB191B021B0A23
:1065C000D200224EA350A0595B1B401B0002000AC0
:1065D0001B0203301C491B0A98420AD98B598B5065
:1065E000FFF7F8FD80221C4B92025A6001E0FFF792
:1065F00007FE134B00221A7009B0F0BD964207D176
:10660000DB69002B04D1104D0127AF6006971D1CDC
:106610001768D269BC46F261002A00D1CAE6176841
:106620003E1C66441660C5E6282700203D27002052
:106630003C270020402700202C2700203427002062
:106640003E270020FEFF7F000010014004050000EF
:106650004827002000E100E0FCE100E0F7B503245A
:1066600001900E1C151C1F1C14400720002C32D159
:10667000002A30D0FFF7C4FD174B80221F60174B54
:10668000C0211C705C709E705D60154B52031C60D5
:10669000144B49001C70144BFF251C70134B5A50AF
:1066A000C52189005858A843C025284358501A606E
:1066B00001980F4AA121C9005050C42189005D589A
:1066C0000C482840C0252D02284358500A4B201C56
:1066D000D2580A4B1A60FEBD302700203427002014
:1066E0002C2700203D2700203C27002000E100E06F
:1066F00000100140FF00FFFF0405000028270020D4
:1067000010B50A4B5B68002B0CD0002A0CD0002877
:106710000AD0036808201C7C002C06D159745A61E9
:10672000201C02E0082000E0072010BD34270020D4
:10673000F0B5214B85B001925A68041C0E1C002A4A
:1067400037D0002835D00720042933D96269002AC0
:106750002FD0627C0023012A01D01F1C00E00F1CF7
:106760006D460F35281C2B7000F05EF868460E3021
:10677000FFF718FD002810D0012303700F4A104BBB
:106780004460D3586A468360019BC6604361937B33
:10679000094A07615370002400E00424287800F0BF
:1067A00061F8002C03D18022064B52035A60201C52
:1067B00000E0082005B0F0BD3427002000100140A3
:1067C00004050000FCE100E008B50A4B5B68002B03
:1067D0000CD0082300280AD04269002A07D00023E1
:1067E00003740221FFF730FD031C00E00823181C8E
:1067F00008BDC0463427002010B5041C082902D06B
:10680000002001F058FD60682368984710BD000023
:1068100007B5044A0090019168460821FFF734FC4F
:106820000EBDC046F967030070B5EFF3108572B670
:10683000094B01225968002908D15A60074A084CBF
:10684000D66F26401E60D467017000E00270002DF4
:1068500000D162B670BDC046B431002004E100E052
:10686000FC06FFBC10B5084B5A68002A0BD0002864
:1068700009D1EFF3108272B604491C680C605860AD
:10688000002A00D162B610BDB431002000E100E062
:1068900070B5002A02D01368DB4301E001235B429C
:1068A000411888420ED00278534008225D08002427
:1068B000DE0700D5044C231C013A6B40002AF5D1B9
:1068C0000130EEE7D84370BD2083B8EDF0B585B058
:1068D000061C0D1C03921C1C00281AD0002918D07D
:1068E000002B16D0032310201E4213D10F1C274368
:1068F0001F400FD103F002FE291C0090039A301CA8
:10690000231C03F0FFFD002801D10B2002E0381CFE
:1069100000E00E2005B0F0BD29DF704728DF70478A
:10692000084B5A6E013A5A66002A04D1064A0220E0
:106930001178814311701A6E0132042A00D10022AD
:106940001A6670474C2700204927002038B50C49AB
:10695000041C4A6E042A10D0086E1318032B00D9A9
:10696000043B01324A6618225343CD18281C0021EB
:10697000FFF792FA2560012000E0002038BDC046F4
:106980004C27002030B585B0041C0D1C6846002142
:106990001022FFF781FA237A012B0BD0022B10D1A2
:1069A00001236A461370A389E28969469A1A0A810B
:1069B0004B8106E0002369460B702269A38A02928C
:1069C0008B816368684601932368291C9B689847FC
:1069D00005B030BD10B5194B596E1A6E00292BD079
:1069E000182454431C19237A012B05D0022B1FD1E4
:1069F000A089FFF793FF0FE0A28AE18A521AFF2ACB
:106A000001DC92B201E0802252002369890058180B
:106A1000E3685918FFF780FF112807D1084B0221BE
:106A20001A788A4304210A431A7005E0002803D02B
:106A3000201C0921FFF7A6FF10BDC0464C270020EF
:106A40004927002008B5054B06211A780A4204D1CF
:106A500002210A431A70FFF7BDFF08BD4927002035
:106A6000034B01211A7800200A431A707047C04670
:106A700049270020F7B51F1C1E4B161C1A7801234E
:106A8000041C0D1C1A4233D00223002830D01A4AAD
:106A900090422DD3194A90422AD20322002E26D0AA
:106AA000002D24D0311C29430623114220D1216816
:106AB0000523A9421CD8BA006168AA18914217D3CD
:106AC0000423002F14D001A8FFF740FF072300285C
:106AD0000ED0019B089A1C605A60019B01221A7219
:106AE000DE601D619F82FFF7ADFF002300E0131CF5
:106AF000181CFEBD492700205426002064260020D3
:106B0000F7B51F1C1B4B161C1A780123041C0D1C07
:106B10001A422DD0022300282AD0174A904227D3A8
:106B2000164A904224D2002921D0AA050623002A21
:106B30001ED1216805238D421AD3B2026168AA18BA
:106B4000914215D30423002E12D001A8FFF7FEFEB8
:106B5000072300280CD0019B022290C3019BAD0AA1
:106B60001A729D811E82FFF76DFF002300E0032350
:106B7000181CFEBD49270020542600206426002052
:106B800038B5284B284A19780224051C106E21427A
:106B90003BD0182358431018A54202D0032D24D00F
:106BA0003DE0224B00211970037A012B02D0022B09
:106BB00010D034E0838AC18A5A1AFF2A01DC92B2CB
:106BC00001E080225200521892B2C28200219A4201
:106BD00025D115E08389028A01338381C38901337A
:106BE0009BB2C3819A421AD10AE0104B1A78013243
:106BF000D2B2032A01D81A7011E000221A700821BB
:106C0000FFF7C0FEFFF78CFE09E00420014206D02A
:106C1000526E81431970002A01D021431970FFF789
:106C2000D9FE38BD492700204C270020B42700207A
:106C3000034B586E043843425841C0B27047C046B7
:106C40004C27002010B5041C0620042C0CD14C68E5
:106C50000920402C08D15C68402C05D108681B68CD
:106C600011685268FFF732FE10BDF0B5051C9DB0EB
:106C70000F1C161C1C1C0620052D17D15D68092051
:106C8000202D13D1684600F03BF900280ED168464C
:106C9000391C321C00F060F9002807D168462168D1
:106CA000012200F085F9002800D165601DB0F0BD1B
:106CB00003685A681B689A4201D3D01A03E08068BF
:106CC00010180130C01A70470268806851680023AC
:106CD000814200D24B1C1068181A43425841C0B27E
:106CE0007047F7B56D460735041C0023281C0F1CA0
:106CF0002B70FFF799FD201CFFF7E6FF002803D05B
:106D0000237C0426002B3CD12368A1685E68002206
:106D10008E4200D2721C5A60002807D02368A068F7
:106D200019680022814200D24A1C1A60E268616838
:106D3000501E072817D803F03DFD0407160B161642
:106D4000160F3B788B5513E03B8876008B530FE092
:106D50003B68B6008B510BE0F60089193A687B68F6
:106D60000A604B6004E056438819391C03F051FD5A
:106D7000201CFFF79DFF236800269968814200D2FE
:106D800098602878FFF76EFD301CFEBDF0B500233B
:106D9000D1B00C784A78240612042243CC786D4690
:106DA00022438C780431240222434024E418043323
:106DB0006251402BEDD1002310AEF218F758946BBE
:106DC000516A1326CD19271CF741211C1126F141C8
:106DD0004F40A60A3C1C744056682C19576812256F
:106DE000EE410725EF4151687E40CD08311C6940D6
:106DF000611804331164C02BDED1026D436D816EC6
:106E00000792C26E846D0893C56D066E476E0D9134
:106E10000E9294460591079A0899099404940A954C
:106E20000B960C970697331C0F95002440252D19BF
:106E30006E46AF59314D1E1C655904347D190195BC
:106E40000B25EE411F1C0625EF417E4019251F1C16
:106E5000EF417E40019F069DBE19059F1D409F4347
:106E60007D407519049E049F4E400F4016407E40A1
:106E700002960D27161CFE4165440227B446161CD7
:106E8000FE41371C66467E40B4461627161CFE415E
:106E9000371C66467740029EF619B4460F9E771956
:106EA000802665447600B4420BD0059EB446069E0B
:106EB00006933B1C049F059604910F97111C2A1CF6
:106EC000B4E7079C099E2D190565089D891952197B
:106ED0000B9D0A9C816504997F190C9E426507668B
:106EE0000A19069F0D999B19C2650E9C059A436667
:106EF0007B1883661319C36651B0F0BD54A8030014
:106F0000002817D0002200238264C3640A4B0021AA
:106F100003650A4B01644365094B8365094BC365EF
:106F2000094B0366094B4366094B8366094BC366ED
:106F3000081C00E00E20704767E6096A85AE67BB53
:106F400072F36E3C3AF54FA57F520E518C68059B4B
:106F5000ABD9831F19CDE05B70B5041E20D0002A89
:106F600001D000291CD00D1C8E18B54216D0236C00
:106F70002A78E25401332364402B0DD1201C211CBC
:106F8000FFF704FFA06CE16C084B074A12184B4155
:106F9000A264E364002323640135E6E7002000E0F7
:106FA0000E2070BDC046C046000200000000000078
:106FB00070B5041C0D1C161C002800D183E00029AC
:106FC00000D180E0026C8021531C8154372A05D8FF
:106FD000382B12D00022E2540133F9E73F2B03D8BB
:106FE0000022E2540133F9E7201C211CFFF7CEFEFA
:106FF000201C00213822FEF74FFF216C4B0FCA00E6
:10700000A06CE16C12184B41211C3F31A264E36477
:10701000100A0A7001390870100C01390870110E3D
:10702000221C3C321170013A1370190A013A117096
:10703000190C013A11701A0E231C38331A70201CD7
:10704000211CFFF7A3FE002E1ED00023E26EDA40C3
:107050002A70A26E0135DA40EA70626EDA40EA7197
:10706000226EDA40EA72E26DDA40EA73A26DDA402B
:10707000EA74626DDA40EA75226DDA400833EA7626
:10708000202BE3D100201FE01823226DDA402A7064
:10709000626D0135DA40EA70A26DDA40EA71E26DA4
:1070A000DA40EA72226EDA40EA73626EDA40EA741B
:1070B000A26EDA40EA75E26EDA40083B191CEA7605
:1070C0000831E2D1DEE70E2070BD0000044B012143
:1070D0001B5CA0229940034BD205D1507047C0469B
:1070E00054A903000C050000044B01211B5CA022E5
:1070F0009940A123DB00D205D150704754A9030069
:1071000008B50020FFF7F0FF0120FFF7EDFF022098
:10711000FFF7EAFF0320FFF7E7FF08BD08B5EB2103
:10712000A0230322DB05C9005A505A5003495A5084
:10713000EC2191405A50FFF7E3FF08BD5C070000C7
:10714000F7B56C4606340023201C2370FFF76CFB58
:1071500001F0D4FF00281FD1114B1A68002A1BD060
:10716000104EC2218900725801252A4214D018609D
:10717000A1230D4FDB00F35869460731381C0B7013
:10718000FFF7AFFD381CFFF79FFD002804D0C22396
:107190009B00F550054B1D602078FFF763FBF7BDA2
:1071A00000D1004000D0004058A9030004D00040A6
:1071B0000D4A0E4B022130B59950111C8022D2008D
:1071C0009C58002CFAD0A124084DE400285198586E
:1071D0000028FCD0054A002050508022D2009A5846
:1071E000002AFAD030BDC0460405000000E001408E
:1071F000F0B5104B104C0125E5501E1C8023DB0020
:10720000E358002BFAD09200521894460B1C8025AC
:10721000ED00634507D01A685F1A3A506759002F8E
:10722000FCD00433F3E70023A3516359002BFCD0B7
:10723000F0BDC0460405000000E0014070DF70476B
:1072400071DF704772DF704773DF704774DF70471C
:1072500076DF70477ADF70477CDF70477DDF7047ED
:107260007FDF704786DF7047A0DF7047A2DF70477F
:10727000A5DF7047A6DF7047A8DF7047A9DF70471A
:1072800063DF704767DF7047030A08704B70030CB9
:10729000000EC8708B700420704713DF7047000029
:1072A000F0B587B002AC6D46EA80061C0F1C1022B8
:1072B000201C0021FEF7F0FD0123A370054B0635CD
:1072C000301C211C2780A560E360FFF7D3FF07B0C7
:1072D000F0BDC0464628002008B500F0ECFF08BD10
:1072E00070B50B4B041C0B4D18880823A8420DD019
:1072F000094D2D68EE0709D5084B60259A701D7061
:10730000597021880322FFF7CBFF031C181C70BDA6
:1073100040260020FFFF00005828002046280020BB
:10732000F7B5134B01901D88124B171C08209D4286
:107330001CD0114B1A6801231A4217D00F4C60223F
:1073400022700322A370A318081C191C6270FFF797
:107350009BFF033086B2A119381CFFF795FF019BF4
:107360003218198892B2281CFFF79AFFFEBDC0465A
:1073700040260020FFFF000058280020462800205B
:1073800070B51E4E042335682C1C1C4030D12B4395
:1073900033601B4B1B491A681B4BC046C046C04696
:1073A000C046C046C046C046C0468A4200D0C0461D
:1073B000013BF2D1154B1888154B984205D013218B
:1073C000FFF746FF002810D014E0AB070DD5FFF7FC
:1073D0003DFF00280ED18021A123A022DB00C9039C
:1073E000D205D15006231D43356001F039F802E083
:1073F000002400E0041C201C70BDC046582800205A
:10740000442600200024F400C0D4010040260020BF
:10741000FFFF0000F0B52E4F0222396800258DB025
:107420001140A94251D106AE1822301CFEF734FD9E
:107430000B236A4601AC538002232370012363703F
:107440000623A3700323E37068465923694602228A
:1074500063710D30FE2302312271A371FFF7FEFE2E
:10746000051E16D16B4659880B2906D84B1CE371B3
:107470000923C918237289B204E00C23E37108239D
:10748000237214210022C9B2201C131CFFF7DAFE5C
:10749000051C002D19D12823301C357075603572FC
:1074A00033827582FFF7D0FE00280DD10949A02351
:1074B0008022DB05D2035A50A121C9005A503A68F4
:1074C000022313433B6000E0051C281C0DB0F0BDF7
:1074D000582800200C050000F0B5041C8BB000F00B
:1074E000C7FF2388142B00D148E118D8102B23D0D4
:1074F00008D8022B00D091E1A94B00211888FFF792
:10750000C1FE48E1112B29D0132B00D086E1A44BFA
:10751000002218888521131CFFF7A2FE3BE1512BA6
:1075200031D003D8502B00D14AE177E1522B00D162
:107530002BE1552B1DD071E19A49A0238022DB0558
:10754000D2035A50A121C9005A50A288944B1A80E4
:10755000954B02221968914319605FE1FFF75AFFCA
:10756000002801D000F0A7FE01228D4B52421A8064
:1075700054E1A379002B00D050E1894B13211888E6
:10758000FFF766FE07E1A2790092002A00D145E1EB
:1075900006AD281C00211022FEF77EFC009B022B6A
:1075A00000D03BE1814B208999891F1C884200D083
:1075B00034E1A27B043A022A00D82FE10099AA798B
:1075C000297001210A43AA71228A03AE2A81628AA4
:1075D000198A6A81221C1432EA60009A00230393FC
:1075E00032806F4A02AB1088321C7360FFF740FE96
:1075F00000280DD102A800F093FF002808D1FE2337
:10760000FF33AB80664B291C1888FFF735FE05E178
:10761000634A0021A9801088291CFFF72DFE00284D
:1076200000D0FBE000210C22281CFEF735FC0021D5
:10763000301C0C22FEF730FC217D481E052800D9A5
:1076400099E003F0B7F803354A29985C638A062B62
:1076500003D0381C0C30012130E0554B00201A8833
:10766000544B311C1A80637DE27D7360237E1202CD
:107670001B041343A27D1343627E012412061343AD
:107680002A1CB360347000F07DFA021C381C0C30E8
:10769000211CFFF725FEC1E00323311C2A1C00201A
:1076A000337000F06FFA021C381C0C300421F0E734
:1076B000638A032B04D0381C0C3002210322E8E734
:1076C000A37D627D1B021343394A381C1380394A5B
:1076D0000C30138002210122DBE70423311C2A1C19
:1076E0000020337000F04EFA021C381C0C300321CD
:1076F000012ACED16968AA68FFF712FE8EE0638A7C
:10770000022B03D0381C0C300621D7E7637D2A1CDE
:1077100006240020311C7360347000F033FA021E1E
:10772000012AB3D16B681E490093AD680E88224BC5
:10773000069801959E4271D01B4B1B6813426DD079
:107740001E4D6023E91CAA702B706C70FFF79CFD26
:10775000C41CA4B229190098FFF796FD2418A4B2FE
:1077600029190198FFF790FD2418B989A2B2301C9D
:10777000FFF796FD52E0381C0C309FE70021A088EF
:107780000A1C0B1CFFF76EFD05E00021A0880A1CF7
:107790000B1CFFF773FD002840D000F08CFD3DE08E
:1077A000402600200C050000582800203228002028
:1077B0005628002030280020FFFF00004628002027
:1077C000174EE288B3889A4228D103AD00210C22DB
:1077D00006A8FEF761FB281C00210C22FEF75CFBCB
:1077E00002232B70231C12336B60238A291C002078
:1077F00006AAAB6000F0C6F90A4B1D88002D0DD01B
:10780000094C2388013B9BB22380002B06D1301CFE
:107810000C300799089AFFF783FD25800BB0F0BD67
:10782000322800205628002030280020F0B53F4B99
:10783000012295B052421A8002A9071C01223C4B3A
:107840008A7001203A1C0B80FFF70EFD041E6AD1DE
:107850003849102204A802F0DCFFB91C04A8FFF785
:107860000FFD041E5FD108AE211C1C220DA8FEF7DF
:1078700013FB211C1422301CFEF70EFB0DA90B7804
:10788000042201AD13432C800B70BB786A469373BE
:10789000022393810122102313436B700323AB70E7
:1078A000142103AB0893B18138883B1D0DA9321C0C
:1078B0007560FFF7DBFC041E35D1211C1C220DA8CE
:1078C000FEF7EAFA211C1422301CFEF7E5FA0DAA95
:1078D00013780822134310210B430DAA2C80137038
:1078E000BB7869468B7301238B816B780F218B43A7
:1078F000012213430B4010210B436B701323AB7019
:10790000172303AAB3813B1C089238880C330DA9B6
:10791000321C7560FFF7AAFC041E04D1064B01223D
:1079200019680A431A60201C15B0F0BD40260020DB
:1079300059FEFFFF6CA903005828002070B5A02352
:10794000EB22DB050321D20099509950A1228A40F5
:107950008021C90399508AB099503B4901AE10313A
:107960000422301C02F055FF01F0D6FD041E19D18F
:107970003648FFF792FC041E14D1301C34494822CB
:10798000344B01F0C1FB002801D000F094FC012031
:10799000011C03AA01F014FC041E03D103A801F08A
:1079A00027FC041C002C4BD12B4801F0E5FB0028E0
:1079B00045D111236A4603AD301C03946C601370EB
:1079C000FFF73EFC041E06D17378311C013373703F
:1079D000FFF734FC041C002C32D1204E301C02F086
:1079E00021FF311C82B26846FFF736FC00280AD11D
:1079F0000C232B8018236B80C8235B00281CAC80D1
:107A0000EB80FFF727FC041E1AD11548FFF70EFF85
:107A1000041E15D1211C1C22281CFEF73DFA114B17
:107A2000281C6B608023DB01AB6003232B730E4BA0
:107A3000AB6100F0DDFC041E02D1FFF7EBFC041C7F
:107A4000201C0AB070BDC0466CA90300005C030096
:107A5000E82700201D920300D974030080A90300C9
:107A600032280020CD0C0000D9720300024B1A68A6
:107A7000013A1A607047C0466C28002030B50D49A5
:107A800085B00B1C0C4C5C3B9A6B684600F0D8FE32
:107A90006D46231C07CD07C3084B0022E360084B4B
:107AA000201C1A605A600749074A01F05DF905B0C9
:107AB00030BDC046183200205C280020ED7A03005B
:107AC0007028002064AA0300F02C002008B501F003
:107AD000FBFDBFF34F8F034A034BDA60BFF34F8FB9
:107AE000C046FDE70400FA0500ED00E05B689A6817
:107AF000054B9A4206D141688268044B0131013A34
:107B000019605A607047C04688A903007028002099
:107B100038B5012001F044FC031E26D1144B154C4E
:107B20001860A36B251C002B1ED0FFF7A7FF0028B1
:107B30001AD0236A002B05D1A369002B02D00E4A6C
:107B4000136008E0EB6A002B0ED1AB69002B0BD061
:107B50006A6A094B1A60084B084A1868002101F04C
:107B6000EFFE074B01221A700023181C38BDC046D7
:107B70006C280020BC31002078280020882C0020B0
:107B8000EC2C0020F7B5141C0A780D1C012A01D03A
:107B9000062A08D12979012903D00720022900D01B
:107BA00071E3BB4B1970BA4B1B78012B03D0022B2E
:107BB00000D1B2E08DE2501E052800D987E202F024
:107BC00003FE0600260046001F008602A400AA68E5
:107BD0000323002A00D17DE28021042349008A4248
:107BE00000D977E2AB4E0024AB4B301C211C383E51
:107BF00020221C70FEF750F93463AD68B56304E0D1
:107C0000A64BD86B60601B6CA360012362E2A34E9D
:107C1000AA68F06BB16B83188B4203D96060366C35
:107C2000A66089E0301869685C3002F0F2FDAA684D
:107C3000F76BD319F363321C6868A9684032FEF70A
:107C400027FE3064F06B6060366CA660DDE7934E13
:107C50000823F16BB26B914200D03BE28E4B1A7855
:107C60000123002A00D035E2FFF708FF0523012891
:107C700000D02FE28A4A111C74310978141C0029A3
:107C80003ED07A321278002A00D123E2854D29684D
:107C90006A68002900D1F4E2002A00D1F1E2231C35
:107CA000DB331B78002B05D0231CDC331B78002B27
:107CB00000D0E6E2231C84331B78002B00D1E0E2E5
:107CC000231C88331B68332B00D0DAE2231C8C334F
:107CD0001B78019300230198834200DBD1E27048B6
:107CE0009F00C7199037BC466F4F60463F8800978A
:107CF0000768BC46009FBC4500D1EDE10133EAE7CF
:107D00001278002A00D1E5E1BBE2644B196CA16056
:107D1000DB6B636080235B00D7E1501E052800D930
:107D2000D5E102F051FD06004B0032012D01D401D6
:107D3000CB01AA68002A01D10323CBE1930506D029
:107D4000564B596D594B51181B689942F4D18023F9
:107D50005B019A4201D90423BCE14F4B1B78002BF5
:107D600001D10823B6E14D4B5048596D00688A187F
:107D70008242F6D8DA6C03209A64AE6819655E64B4
:107D800019634B4B4B4C1A784B4F013202401A701F
:107D90004A4B00221A802368494A01332360494B29
:107DA00018680818A968C919890A01F049FB002850
:107DB00000D12AE72368013B23608AE1374E364B26
:107DC000306D1B786060B16CA160002BC9D0A968D0
:107DD00080277F00B942BED8326D706D8B18726CEF
:107DE0001B1A9342A8D8321C48326868FEF750FD2F
:107DF000B064A868316D431833656360B26C2F4876
:107E0000A2600388AA6899188C4660466968FF28B2
:107E10000DD8274E2C4F307800021B18F81802F0AE
:107E2000F8FC264EAA683388D31833806EE0204AC7
:107E3000FF1A1078244A0002BFB21B18D0183A1C4F
:107E400002F0E7FC1D4BA9681A88BA1892B21A8092
:107E5000CB1BAB606B680332DF191A4B6F6018687D
:107E6000376B92103818134F3B6801333B60104B4F
:107E70001978154B09025918114B01F0ABFA00287B
:107E800024D10E4F306B3B881B18336328E0C0466B
:107E900042260020F4310020EC2C0020BC310020D0
:107EA000F02C0020702800200C30000078280020E2
:107EB0001C2E00206C280020FF0300007C2C0020DA
:107EC0006D7A0300882C00207C2800203B68F16C30
:107ED000013B3B60736DB16433656360F66CA66013
:107EE000BD4B03221878BD4E01301040AA681870AF
:107EF000002333809A4209D0B94B000218186968F0
:107F000002F087FC3388AA68D3183380B34B1A88F1
:107F1000002A00D179E6B34D6E6D2B6B911B6F6C0F
:107F2000C918B94200D270E6AF49B04E0868AA4FEE
:107F300018183368397801333360A94B09020332CA
:107F400059189210AA4B01F045FA002805D1A34E0A
:107F5000286B33881B182B6309E03368E96C013BFD
:107F600033606B6DA9642B656360ED6CA5603B7835
:107F7000032201331340994E3B700023338044E6C3
:107F8000984B1F6D67609B6C3EE6964C236D606D51
:107F9000616C1A1A914200D0E3E6A16C002063657F
:107FA0006064E16401F008FB0A23002800D091E03E
:107FB000904F226D3B689A4200D026E68B4B1B689F
:107FC000002B02D001F088F9F8E78B4E0A25331C0C
:107FD000B9331B78032B19D1884D894B05202B60B1
:107FE00020236B60804B3A6819682B1CFEF73DFE1E
:107FF0002B1C0A25002800D10125311C1868BB3133
:10800000202202F0F7FB002800D005256269002A33
:1080100005D00A23012A5DD1231C243301E0231C4F
:108020001833012D2FD1321CA1321078032816D815
:1080300002F0C0FB02050B0E01229A6017E0A43685
:108040003668A5229A60666318E0AA229A6012E058
:10805000AC229A60321CA432126862630BE00028E2
:1080600004D002380A25012808D804E00A2504367D
:10807000F66FA66002E00436F66FE660A46C3F6817
:108080005C601F6003E000229A605A601A605D4CD9
:108090000021201C2022FDF7FFFE201CFF21B22220
:1080A0002430FDF7F9FE383C00235748236301F0E4
:1080B00083FA0A2300280DD12B1C0BE0494B9E6C40
:1080C000A6601B6D636080235B0123609DE5022336
:1080D00000E00523181CD6E04748A1300378032BA5
:1080E00000D9CEE0181C02F065FB02120A0A231C1C
:1080F0007C331B78002B00D1C3E0B0680EE0201C5D
:108100007C300078002800D1BBE0F06800E000205F
:10811000002B03D0023B012B0BD805E0231DDB6FA6
:10812000834200D2ADE004E0231DDB6F834200D820
:10813000A7E0231CE8331B78002B00D0A1E0304BD4
:1081400005202B6020236B602B1CFEF78EFD002882
:1081500000D096E02D4F261CE936211CEA313278FA
:10816000381C02F056FB2A4B04201F603278294944
:108170005A602A1CFEF766FD05230028AAD11D4D72
:10818000231C2860A133187803287AD8231C02F016
:1081900011FB02190945B0331B78002B71D0231C49
:1081A000B43315E0A8331B78002B6AD0231CAC3302
:1081B0001B682B60FF2218499202521A934200D981
:1081C000C9E543E0A2331B78002B5AD0231CA4330B
:1081D0001B682B603AE0C0461C2E00207C2C00203F
:1081E0007C280020BC310020882C00206C28002036
:1081F0006D7A030078280020F02C002070280020E1
:10820000CC2C0020F4310020CD7A03008C2C0020EF
:10821000802C002004AB0300005C0300A8331B7813
:10822000002B2ED0231CA2331B78002B29D0231C1B
:10823000A4331A68231CAC331B6899182960002AE0
:1082400000D179E5002B00D176E5B3E7211CBB31E5
:108250000D48202202F0DDFA2868002800D16BE5E5
:1082600000210A4A01F06CFB002800D073E501F000
:10827000A3F90A23002800D02CE7054F01233B7007
:1082800028E70A2326E7FEBDCC2C0020882C0020FE
:10829000EC2C0020BFF34F8F034A044BDA60BFF38E
:1082A0004F8FC046FDE7C0460400FA0500ED00E030
:1082B00008B5FFF7EFFF08B5FFF7ECFF10B5FEF7C5
:1082C0002DFF0220FEF702FF0849E223A022DB0077
:1082D000D205D15000F0ACFF041E01D0FFF7DAFF49
:1082E000034B186800F0C8FF201C10BD0C000300F1
:1082F0000830000075DF704776DF70477ADF70471F
:108300007BDF704737B5174B1888174B984227D03B
:10831000164B174D1A782C1C0132D2B21A70297BD9
:10832000914208D31349FFF7E5FF002818D0AB6945
:10833000002B14D114E000221A702B7C934208D039
:108340003B21FFF7D9FF002803D0AB69002B00D0F9
:1083500098476369002B03D001A800220270984758
:1083600037BDC046642E0020FFFF0000262E0020EF
:10837000282E0020662E002037B5174B174A5B8841
:108380001188174C174D99420CD852889A4209D33C
:108390006369002B03D001A80122027098470023D3
:1083A0002B7037BD2B78002B05D06369002BF6D0DE
:1083B00001A80022F1E70C4B1B78002B01D161686A
:1083C00000E0A16809480022FEF7B2F90028E6D0D3
:1083D000A369002BE2D1E2E71E2E0020662E0020CA
:1083E000282E00201D2E0020262E0020442E0020A6
:1083F00070B51449021C0B1C70CA70C332CA32C358
:108400001268114C1A600168104B00221A70201C6F
:10841000914213D0082202F0FCF9201CFFF76EFFF6
:1084200000280ED10A4B012252421A80094B00212A
:10843000094A0A481970FEF763F902E0FFF760FF86
:10844000EEE770BD282E0020662E00201D2E002095
:10845000642E0020262E0020058303000CAB0300B1
:1084600008B50248FEF7B0F908BDC046442E00200A
:1084700010B50388112B19D002D8102B05D043E07A
:10848000122B39D0502B20D03EE082881F4B011C8C
:108490001A80183108221E4802F0BBF91D4B002239
:1084A0001A701D4BDB8993422ED12BE0174B012212
:1084B00052421A80174B002218481A70FEF784F9AE
:1084C000002821D0144B9B6912E0134CC188E2892B
:1084D000914219D1038A022B16D1123000F020F8F4
:1084E00000280FD10D48FEF76FF900280CD0A369C2
:1084F000002B09D0984707E0011C083104480822E6
:1085000002F087F9FFF738FF10BDC046642E002047
:108510001E2E0020262E0020282E0020442E002073
:1085200000780123184070470023C2600160416059
:1085300083608B78D21802610323CB56D218426134
:108540000878431E9841C0B2704770B54368002454
:108550001A78A24238D01A1C0C3242601A7BA2420E
:1085600004D10168C268FFF7DFFF2DE0597830259C
:108570001A790D40302D09D15E7B3540302D05D163
:108580009A7801698A1A0261221C0CE00F240D1CE2
:10859000A543202D02D159794A4304E03F24A14349
:1085A000802900D104225C7830210C4202D18168FC
:1085B00001318160997B0124521801698A18026196
:1085C000DB7B5BB2D2184261201C70BD70B5456880
:1085D000041C0E1C63681A78B24204D15A780F2327
:1085E0001340082B07D1201CFFF7AFFF6368AB4295
:1085F000F0D1002000E0012070BD10B54468A31840
:1086000043600023994205D0934203D0E05CC854F4
:108610000133F9E7012010BD10B5041C01222368C5
:108620009847002802D0A368013BA36010BDF0B5B5
:10863000836885B0061C0191002B02D100230093B2
:1086400028E06D460F35291CFFF7E6FF0090002853
:10865000F4D02B785AB2002A01DB1F1C18E07F22CD
:108660001F1C17400724B368002BE7D0301C291CBF
:10867000FFF7D2FF0028E1D02B787F221A40A240DA
:108680005BB217430734002B02DA232CEBD1D5E77A
:10869000019B1F60009805B0F0BD30B541680F2206
:1086A0004B7887B01A40082A1DD103691C68002C3A
:1086B00048D000232373236862689D686846291C9C
:1086C000FFF732FF6268231C0C33049205936B782A
:1086D0003F229343802B01D1231D04936846FFF76B
:1086E000DCFFA468E3E73F22191C91430A1E09D16D
:1086F00030211940102902D143691A700CE0990603
:108700000AD506E080291DD1016900220A60990678
:1087100018D543691A7015E042680F2354789168A0
:108720001C400369072C04D1081C191C00F00CF82C
:1087300008E01279181C002902D002F06AF801E062
:10874000FDF7AAFB07B030BD7FB5031C0A1C6846C5
:10875000191CFFF7E9FE002806D06846FFF79DFFC9
:108760006846FFF7F2FEF6E707B000BD30B5041C1F
:1087700085B0151C002912D1114B02689A420ED007
:10878000201C6946102D06D91022FFF7EFFF0028A4
:1087900013D0103DF4E72A1CFFF7E8FF0DE0A368B3
:1087A000AB4201D2002008E0201C2A1C2368984715
:1087B0000028F7D0A268551BA56005B030BDC046A3
:1087C000FB850300F7B50F1C01A9061C151CFFF75C
:1087D0002EFF041E13D0019A0024531C93420ED383
:1087E00079783F208143802909D039798B4206D896
:1087F000301C291CFFF7BAFF019BEC54041C201C01
:10880000FEBDF7B50E1C01A9041C151CFFF70FFFD8
:10881000002814D0019B0020FF2B10D85A1C934233
:108820000DD871783F27B943802908D031798A4221
:1088300005D82B70691C201C1A1CFFF797FFFEBD82
:10884000034B4160036000238260C3607047C046F1
:10885000FB850300F0B5002487B0071C0D1C0394B2
:108860000294BB68002B02D10023019320E06E46E6
:108870001736381C311CFFF7CFFE01900028F3D0CB
:1088800036787F203040029A002101F0A7FF039B39
:1088900076B20B430393029B044307330293002EEB
:1088A00003DA029B462BDCD1DEE7039B2C606B6076
:1088B000019807B0F0BD37B50D1C6946141CFFF7D1
:1088C000C9FF002821D02B79082B04D1009B0198E7
:1088D0002360606011E0042B02D1009B236004E060
:1088E000022B04D1009B23809BB2002005E00020D6
:1088F000012B0AD1009B2370DBB2009A5340019AEE
:108900005040184343425841C0B23EBD37B50D1CDC
:108910006946141CFFF79EFF002801D100201DE0CE
:108920002A79082A04D1009A019B2260636015E02D
:10893000009BDD17042A01D123600FE0022A03D136
:108940009AB2228012B204E0012AE7D1DAB2227090
:1089500052B2D1179A42E1D1A942DFD13EBDF7B55B
:108960001E1C002333700C1C0B70136001A9071C24
:10897000151CFFF75CFE002806D1BB68002B0BD14D
:1089800001233370002007E0019B002BF8D0DA08A8
:108990002A60072213402370FEBD37B5041C052949
:1089A00025D8081C01F006FF060F1323231F2B7880
:1089B0007F2B1DD901AD201C291C0122FFF7D6FEFB
:1089C0000028F4D114E0201C0021082208E0201C1B
:1089D00001A9FFF72CFE00280AD0019A201C0021D3
:1089E000FFF7C4FE04E0201C00210422F8E7002069
:1089F0003EBDF7B50D1C01A9041CFFF718FE0028A9
:108A000001D100200DE02B1C221CC2CAC2C3126877
:108A10001A60019BA9689942F3D3AB60A268D31A8C
:108A2000A360FEBDF0B50B1C5168051C48788BB0E7
:108A30000090009E3F20141C864302D0402E66D03A
:108A4000BAE0009A0F2010405D4A8700BA583027DC
:108A50000192009A3A40102A08D002D8002A09D080
:108A6000AAE0202A0BD0302A40D0A5E0606901237B
:108A7000037061682269281C019FB8479DE0666900
:108A8000022B24D1042822DC281C06A9FFF7B1FF01
:108A9000002800D190E00898002811D06168337850
:108AA0004A799A420CD90A7920695343019FC21826
:108AB00006A8B847002804D0337801333370EAE7BA
:108AC0000120079A089B6A60002B76D074E00B792E
:108AD00049799C4633782269002099426DD96746CE
:108AE000591C7B4331706168D218C4E70B78626906
:108AF00013700728BDD16368311C1A792069FDF70E
:108B0000CBF9636821699868FFF71EFEB1E7176922
:108B10003A68381D0190002A04D1281C191CFFF75F
:108B20003CFF4AE0022B12D1281C06A9FFF761FF87
:108B3000002841D006A86168019A3B689847002840
:108B40003AD0089A002AF5D1079B6B6035E0012BDB
:108B50001DD0002B08D0052B2ED1281C03A90422E0
:108B6000FFF704FE042618E01E1C03A83118013686
:108B70000B2E21D0281C0122FFF7F8FD00281BD066
:108B800003AA9319013B1B787F2BEED807E0281C22
:108B900003A90822FFF7EAFD082600280DD0094B9B
:108BA0000896069303AB07930023099361683B681B
:108BB00006A8019A984700E000200BB0F0BDC0461F
:108BC00010AB0300FB850300F0B595B00026041C34
:108BD00008A806960796FFF7A7FCA268002A00D10E
:108BE00092E06D466F4612351337201C291C05AAEA
:108BF0003B1CFFF7B4FE002804D13B78002B00D0CB
:108C000082E07FE008A80599FFF7E0FC002856D134
:108C10000598B0424DD3099E099B0F2259780A400E
:108C2000082A00D19CE008A8FFF78FFC099AB242FD
:108C3000F2D101267642059B0193B34239D32D78B8
:108C40000C9BA06803951D680290A368002D2DD091
:108C5000029898422AD12B681F68002F05D0201C4B
:108C6000291C019A039BB8471CE09F68019A3B7836
:108C7000934219D16A680EA8391CFFF755FC6B683E
:108C80003F2212932B1C0C3313937B789343802B3E
:108C900001D12B1D129301232B73201C03990EAAC3
:108CA000FFF7C0FE00282DD0AD68CEE702989842AD
:108CB00093D16B46997C201CFFF76FFE1FE0099B48
:108CC0005A7830231A420DD10A9B3F2B0AD81F2015
:108CD00059090340012006AA89009840031C8858BE
:108CE00003438B50E768002F04D02A78201C059995
:108CF00008ABB8472978201C08AAFFF793FE002884
:108D000000D06AE700202DE0099B08A80A9C5D7846
:108D1000FFF71BFC0028F7D130231D4204D1099B2B
:108D20001B785A1E9341E418002C17D065090023C4
:108D300006AA9900AB4204D05258013212D1013335
:108D4000F6E71F2004402020041B01204042E040A1
:108D50005458201A44426041C0B203E0012001E0AF
:108D60001E7868E715B0F0BD70B5061C0D1C141C0C
:108D7000081C111CFFF7E8FC301C291C221CFFF703
:108D800023FF70BDF0B585B00C1C8F686946051CCB
:108D9000161CFFF72EFE002811D0A06800280ED068
:108DA0006278302313406846391C321C202B02D1D4
:108DB000FFF7DAFF01E0FFF707FF019B6B6005B0EB
:108DC000F0BD73B50C1C6946FFF744FD00280DD0BB
:108DD000019A009BD1075D0852082943DE0703D59D
:108DE000C9432160D24300E02160626076BD37B59F
:108DF0000D1C6946141CFFF7E4FF002823D02B79D3
:108E0000082B04D1009B019A2360626013E0042BBD
:108E100002D1009B23600DE0022B04D100998BB29C
:108E200023801BB206E00020012B0CD1009AD3B2A4
:108E300023705BB2DA1700994B4001994A40134303
:108E400058425841C0B23EBD37B501AC0D1C04229A
:108E5000211CFFF78BFC00280AD06278A37812024D
:108E60001B04134322781343E278120613432B604A
:108E70003EBD08B5111CFFF7E7FF08BD37B50C1C58
:108E800008226946FFF772FC002817D06A4651781D
:108E9000937809021B04194313786D461943D3785C
:108EA00012791B0619436B7921601B021343AA79BF
:108EB00012041343EA791206134363603EBD08B5FA
:108EC000111CFFF7DBFF08BD03210A4802680A43B3
:108ED0000260094802680A4302600849084A094BCF
:108EE0009B1A03DD043BC858D050FBDC00F012F89D
:108EF000FCF744FF2405004054050040F0AB03009C
:108F0000E02500206C260020FEE7FEE7FEE7FEE7F6
:108F1000FEE7FEE710B52C4A1378012B12D12B4B3C
:108F20001B6818070ED12A4BF0211B68E024181C7F
:108F30000840234204D1274B1B680B4202D127E093
:108F40003028F8D01378012B0DD120490968080783
:108F500009D11F490868F0210840402803D11D4865
:108F6000006808421CD01378012B2BD1174B1B68CB
:108F7000190727D1164BF0221B681340A02B04D1F0
:108F8000144B1B6813421DD110E0D02B1AD1F7E708
:108F90001149124B19608021114B09021960D1E768
:108FA000C1218020C900C0054350DCE70D4B1A6881
:108FB000012A04D00C4A1A601A68012AFCD10B4B12
:108FC000C0221A6010BDC046E00F00F0E40F00F0B0
:108FD000E80F00F0EC0F00F0DFFF07C004050040D1
:108FE000186C004000EC06407593000014EC06403D
:108FF00052DF704710DF704760DF704761DF7047F6
:1090000008B5FFF755F908BD0A4AC5239B00D35898
:10901000590201D408480BE0084B80215868C90365
:10902000002804D01A6800201143196000E0116084
:109030007047C04600E100E002200000B43100208B
:10904000F0B5284B85B01B78002B48D0264E274F13
:109050003268544254413A68E4B255425541EDB247
:10906000002C3AD1224B1B78002B38D103A8FFF7F4
:10907000BFFF052808D0002802D0FFF71CF904E044
:1090800003983368984700E00124002D22D1184B43
:109090001D78EDB20095002D21D1164B03A91B8838
:1090A0000B80154B1B68181C0193FFF7A7FF051ECB
:1090B000052D09D0002803D0FFF7FDF8009D04E03E
:1090C00001983A68904700E00125002CC8D0002D97
:1090D000C6D004E0002C02D1C2E7002DD7D005B0E5
:1090E000F0BDC0466F2E0020782E00207C2E002080
:1090F0006E2E0020702E0020742E0020014B187858
:10910000C0B270476F2E002070B5061C07200029E2
:1091100022D08C0720D11148016011490A80114AE0
:109120001360114B1C681D1CA404E40F03D08022A3
:109130000E4B9201DA67301C0D49FFF75BFF0028E8
:1091400005D0002C08D080239B012B6004E0094B44
:1091500001221A70FFF758FF70BDC046742E002020
:10916000702E0020802E002000E100E004E100E0ED
:10917000019003006F2E0020002803D0024B1860DE
:10918000002000E00E2070477C2E0020002803D035
:10919000024B1860002000E00E207047782E00205F
:1091A00008B5064B1B68002B05D09847002804D053
:1091B000FFF781F801E0FFF743FF08BD802E002094
:1091C00070B5141C051C0E1C101C00211422FCF789
:1091D00063FE00222261227B01239A4323802273B3
:1091E00026726572002D00D0A372002070BD0000B1
:1091F00007B5044B69460193019B0093FFF7FCFE02
:10920000019B0EBDE025002008B5002902D00020FA
:10921000FFF751F8FFF714FF08BD000008B5002064
:10922000011C024AFCF730FF08BDC046099203004A
:1092300008B500F055F808BD13DF7047F0B5031C02
:10924000186880F308885868FF2464B2EFF3058536
:10925000002D01D1A6460047251C061C21273FBA38
:10926000F0B40024002500260027F0B4F92040B215
:109270000047C046F0BDC04610B5041C00F04CF9D4
:1092800000280BD10122064B5242DA67201CFFF75F
:10929000D3FF002802D1201CFFF7D0FF10BDC0462D
:1092A00004E100E010B5A223A022DB00D205D358D0
:1092B000DA0601D401200CE0064B00209C6D012C45
:1092C00007D1986500F078F90028F3D0FEF7F3FF96
:1092D000201C10BDBC31002008B5FCF735FF08BDCF
:1092E00013B50023019300F0AFF901A800F06CFA68
:1092F000002801D001230193FFF7D4FF002801D0FB
:1093000001230193019C002C0AD000200521154A5D
:10931000154BFDF7A3F9002807D0FEF7CCFF04E0BA
:1093200000F0F4FA0028F0D011E0082014210F4AD0
:10933000FCF784FE002801D0FEF7BDFF00F0AEF977
:10934000041E0CD1FEF7E4FBFCF7FEFEFCE700F088
:10935000DDFA002803D0064B1868FFF78DFF201CAC
:1093600016BDC046D42F002011680300842E0020B3
:109370000830000038B5094B01241A68151CA543B4
:10938000002902D10324A24301E002222A431A60E9
:109390004368002B00D0984738BDC0464C300020B1
:1093A00008B500280ED0FDF75BFB002801D008208F
:1093B0000AE00648FFF7EAFE0028F8D1044B042231
:1093C0001A6001E0024B186008BDC046816B0300C3
:1093D0004C300020F0B5184E1C1C336889B00425B1
:1093E000071C8C4603921D4013D00A209A0720D4F4
:1093F000039A01252B433360104893B20094391C23
:109400006246FDF737FB002813D133681D433560F2
:109410000FE0039AFDF7ECFE002C09D0039A04A894
:109420000570446087608281291CA047281C00E0E9
:10943000201C09B0F0BDC0464C300020542600204E
:10944000F0B5214D87B02B68071C0191161C5A07F7
:1094500015D50A209A0735D4012423432B608AB2FC
:109460001A48391C331CFDF74BFB002803D02B682E
:10947000A3432B6026E02A6814432C6022E0019C61
:10948000051C281CFDF794FE8023DB00013CED1831
:10949000002CF6D1019A95027D19002E11D0211CC5
:1094A000102202A8FCF7F8FCBF0A6A460123AD0AA5
:1094B00002A8137217825582211C0396B047201C04
:1094C00000E0301C07B0F0BD4C30002054260020D6
:1094D00018DF704730B585B0051C10220C1C68469B
:1094E0000021FCF7D9FCA408684601950294FFF717
:1094F000EFFF05B030BD1FB59208D4B2031C0920A0
:10950000002C07D10120009068460191029303923C
:10951000FFF7DEFF04B010BD1FB500211022684622
:10952000FCF7BAFC022368460093FFF7D1FF05B0B1
:1095300000BD1FB503230190920868460093029175
:109540000392FFF7C5FF05B000BD000008B5002974
:1095500001D1044B1970044B1B68002B00D09847B5
:1095600008BDC046503000205430002008B50A4BDA
:109570000A491A680A4BC046C046C046C046C046A3
:10958000C046C046C0468A4200D0C046013BF2D128
:10959000FCF7DAFD08BDC046442600200024F40094
:1095A000A086010008B5034858210022FDF770F994
:1095B00008BDC046C0310020F8B5051C1C4C2378FE
:1095C000002B02D0FFF7D2FFF8E701232370194BDD
:1095D0001D60FDF72DFB051E02D0FFF7C7FFF8E762
:1095E000154E0121301C2A1CFFF72AFF0728F0D056
:1095F00000281AD1FFF7D6FF1049114FAE2208609C
:109600005200381C01F005F9FDF712FB051E02D0CF
:10961000FFF7ACFFF8E7301C391C5722094BFFF766
:10962000D9FE0728F0D0002801D025700320F8BD0E
:10963000503000205430002000FC0300BC310020DA
:10964000583000204D950300114B10B50022114CED
:109650001A70AE22201C1049520001F0DAF823687B
:1096600001330FD1AE22201C00215200FCF714FC64
:10967000012300206360FFF79FFF002807D0FEF75B
:109680001AFE04E0FFF78EFF23689842EAD110BD6E
:1096900050300020BC31002000FC030070B5084BA6
:1096A000084D0024ED1AED081E1CAC4206D0E30064
:1096B000F3589847002802D10134F6E7002070BD26
:1096C000642600206C26002070B5094B094D00244B
:1096D000ED1AED081E1CAC4207D0E300F3185B68DE
:1096E0009847002802D10134F5E7002070BDC0463C
:1096F000642600206C26002008B50C220021FCF70F
:10970000CBFB034B00221A635A631A615A6108BDEE
:10971000BC310020F7B51B4F80213B6B4901591824
:1097200001917A6B1849C6185418E41AA40AA402C5
:10973000A5086D18AD0AAD02002A01D093421FD0D2
:109740000198311C2A1CFFF7D6FE002819D1019878
:10975000311C2A1CFFF7EDFE002812D1019A761960
:1097600052190192A54201D8641B00E0041C796BD8
:1097700000200B1B3B63FFF71FFF002CE0D100E034
:109780000020FEBDBC310020FF030000F8B50C4BEB
:109790000A685B6B0F1CC518D41A0A48291C221CC6
:1097A000FFF7C7FE061E06D1381CFFF7A5FF301CC9
:1097B000FFF702FF03E0281C211CFFF78BFEF8BD1A
:1097C000BC310020005C0300F0B54C4D4C4B2969C6
:1097D00085B0071C1A6801290CD06869002809D0D7
:1097E000A96948482E1C0B189B0A9B029B180193E1
:1097F000243602E02E1C01921836B368A52B59D0EE
:1098000002D8012B05D074E0AA2B5FD0AC2B63D01B
:109810006FE06969002401296CD12F6B6B6ABA185B
:1098200003930292DF1B80233E1CDB009F4200D982
:109830001E1C029801210022FFF702FE041E59D1CE
:10984000231C02980199321CFFF7C4FD041E51D15C
:1098500002980199321CFFF76CFE041E4AD1221CAB
:1098600001980121FFF7ECFD041E43D1286BBF1BBB
:109870003318201C2B63FFF79FFE0299019A891968
:10988000921902910192002FCDD11D4B03991868B6
:109890003A1CFCF7FDFFA96A884204D1039A012310
:1098A0002B62E861AA611848FFF726FF0020FFF746
:1098B00083FE0FE00198FFF72DFF041E16D1301C28
:1098C000FFF71AFF201CFFF777FE0EE00198311C0E
:1098D000FFF75CFF041C0DE00198FFF71BFF041E5F
:1098E00004D10198311CFFF751FF041C01233B6098
:1098F00000E00024201C05B0F0BDC046BC310020B3
:1099000008300000FF030000E031002010B50A4CD1
:109910000020236A012B0ED1E269181C002A0AD00C
:10992000064BA16918680022FCF7B2FFE369C01A70
:1099300043425841C0B210BDBC3100200830000085
:10994000F8B5051C1A481B4B06681B481B683618DF
:10995000F61AAE4201D2042028E01360174B186AB1
:10996000012817D19C69A446154CA4446746BC0A3B
:10997000A402361BB54204D90029ECD11861596103
:109980000BE00021196158611068041914601C1C57
:10999000243404E000221A615A611C1C1834201C73
:1099A00000210C22FCF778FA25600020F8BDC046A3
:1099B000141000100830000000F4FFFFBC3100203C
:1099C000FF030000002A03D0013A8B5C8354F9E7BF
:1099D000704710B5013AD2B253B2002B07DB9B009F
:1099E000C458CB589C4204D8F4D2FF2002E0002097
:1099F00000E0012040B210BD0000000000000000A7
:109A000070B50824E31ADB000133041C002003A511
:109A10005B1920C940CAAD1920C4184720C940CAE3
:109A2000754120C420C940CA754120C420C940CA1C
:109A3000754120C420C940CA754120C420C940CA0C
:109A4000754120C420C940CA754120C420C940CAFC
:109A5000754120C4404170BDC046C046C046C046A6
:109A600070B50824E31ADB000133002403A5C046C7
:109A70005B1920C940CAAD1B20C0184720C940CA85
:109A8000B54120C020C940CAB54120C020C940CA44
:109A9000B54120C020C940CAB54120C020C940CA34
:109AA000B54120C020C940CAB54120C020C940CA24
:109AB000B54120C064416042604170BDC046C046AF
:109AC000F0B5013B9B0098465B00994600230024BB
:109AD0000025002601B4002702E0370040463F1A67
:109AE0009A46A346AC46B646F01B1458C859030C18
:109AF00080B2250CA4B21E006E436343454360430D
:109B00001C041B0C00195E412C042D0C00196E4125
:109B100053465C4665461B18744100204541764615
:109B20000437474501DCB742DADD0098835123460C
:109B30002C46002504364645CDDD4E45CDDD83510E
:109B400001BCF0BDF0B5013A92009046520091463A
:109B5000002200230024002501B4002602E02E008C
:109B60004046361A92469B46A446AE46AF1BCB599A
:109B70008859020C80B21C0C9BB2150065435A43F5
:109B8000444358431304120CC01855412304240CB9
:109B9000C018654152465B466446BE4203DA002760
:109BA00012186B417C41002712186B417C417546AD
:109BB0000436AE4202DAAF1BBE42D3DD00984251FA
:109BC0001A462346002404354545C6DD4D45C6DD0D
:109BD000425101BCF0BD10B500235AB28A4205DAE9
:109BE0009200002401331450DBB2F6E710BDF7B544
:109BF0001E1C01910223F15E041CC81DC3171F31F6
:109C00005B0F1B18C817C00E41184911DB100091DB
:109C1000151E9D4200D91D1C009A201C57B2391CEC
:109C2000FFF7D9FF2A1C201C0199FFF7CBFE022267
:109C3000B35EED009D421FD9009AED1A9300E31820
:109C40000022A3420AD9043B1968081CE8400243D9
:109C50001A602022521B91400A1CF2E72436301C65
:109C6000211C3A1CFFF7B5FE012805D0201C211C41
:109C7000321C3B1CFFF7F4FEF7BD10B500231A1C85
:109C80005CB28C4205DAA400245801332243DBB2D3
:109C9000F6E75042504110BD4B119B001F2211406E
:109CA000185801228A4010407047000010B5013951
:109CB000C9B24BB2002B0ADA0131C9B20023994272
:109CC00013D00B4C49B20A199200125804E09B00C1
:109CD0001B58002BEBD0EFE7002A02D052080133CB
:109CE000FAE7013949015B189BB218B210BDC046B2
:109CF000FFFFFF3F30B500235CB2944205DAA400B9
:109D00000D5901330551DBB2F6E730BDF0B508223D
:109D10008FB00C1C051CFFF7EDFFE16A226B636B33
:109D200009910A92A16BE26B06A800260B930C9195
:109D30000D92011C021C0823089607960696FFF751
:109D40005FFE291C009006AA0823281CFFF758FE76
:109D5000236B616BA26B0993E36B049006A80A91D5
:109D60000B920C93011C021C08230D96FFF748FE72
:109D7000291C039006AA0823281CFFF741FE216A2C
:109D8000626AA36A06910792A16BE26B0590089341
:109D90000C910D92291C06AA0823281C0B960A96E2
:109DA0000996FFF72DFE636AA16AE26A0693636B68
:109DB00007910892A16BE26B09930C93236A0290BE
:109DC0000A910B920D93291C06AA0823281CFFF761
:109DD00017FEE16A226B636B06910792216AA26A01
:109DE000019008930C910D92291C06AA0823281CA7
:109DF0000B960A960996FFF733FE236B616BA26BF5
:109E000006930791E36B616A0892E26A071C099363
:109E10000C910D92291C06AA0823281C0B960A9661
:109E2000FFF71EFE0499009A0C968B180399059A69
:109E30005B1802999B18019A5B189B18181A636BA0
:109E4000A16BE26B0693236A07910892616AA26A8A
:109E50000993236BC71B0A910B920D93291C06AA29
:109E60000823281CFFF7FCFDA16BE26B636A0691D7
:109E70000792A16AE26A646B3F1A09930A910B92F6
:109E8000281C291C06AA08230D9408960C96FFF797
:109E9000E7FD104C3F1AB74216DA221D281C291C78
:109EA0000823FFF7ADFDC719F7D410E0201D291CCA
:109EB0000822FFF78EFD012809D0221D281C291C2D
:109EC0000823FFF7CDFD3F1A002FEFD0F5E70FB0C5
:109ED000F0BDC04634AB030030B5013AD2B2002326
:109EE00054B2002C07DBA4000D590459013A6C4010
:109EF0002343D2B2F4E75842584130BD10B589002F
:109F000041180023814206D904390A6854082343C2
:109F10000B60D307F6E710BD70B5151C0268041C72
:109F20000B1C0026D20705D51A1C211C2B1CFFF781
:109F300067FD061C201C291CFFF7E0FF002E08D03F
:109F4000044BED18AD006419226880231B061343EF
:109F5000236070BDFFFFFF3F70B51E1C002504ABE2
:109F60005D57041C2B1CFFF74BFD002806D1301C4D
:109F7000211C2A1CFFF72DFD012805D0201C211CC7
:109F8000321C2B1CFFF76CFD70BD70B51E1C00252C
:109F900004AB5D57041C2B1CFFF762FD002805D0A5
:109FA000201C211C321C2B1CFFF72AFD70BD000059
:109FB000F0B51C1CA7B016AB03900591101C211C1A
:109FC0000493151CFFF772FEA301181A80B203B2A6
:109FD000DF17FF0EFF183E4E7F110190FFB21E40AB
:109FE00004D52023013E5B421E4301367FB2F6B208
:109FF000391C06A876B2FFF7EEFDBF00002E13DD78
:10A0000006A8C01900220290131CA34212D2980085
:10A01000295801330F1CB7403A43029F3A5020227F
:10A02000921BD1400A1CF0E706A9C819221C291C62
:10A03000FFF760FE66000296A70006AEF6190096CE
:10A040000125019E33B2002B37DB00231A1C029E30
:10A0500059B2B14217DAA80010306F46C0598900D2
:10A06000465806A80858301A801AB04202D08642D4
:10A07000924152420126761BB60004AFBE5901330D
:10A080007050DBB2E3E706AEAD1A301C211CFFF7BF
:10A0900035FF6A425541631EA2009B0092599F59A9
:10A0A000D2073A430098211C9A51FFF727FF019BE2
:10A0B000EDB2013B9BB20193C3E7AD0010356F4693
:10A0C000E9590398221CFFF715FE27B0F0BDC046E2
:10A0D0001F00008070B590B01D1C002414AB1C57ED
:10A0E000061C231C6846FFF7EBFC301C69462A1C43
:10A0F000231CFFF75DFF10B070BD30B51C1C91B084
:10A100000023051CE3566846AC34FFF7D9FC2368EE
:10A11000281C6946984711B030BD30B5141C91B069
:10A120000022A256051CAC346846FFF70BFD2368DD
:10A13000281C6946984711B030BDF0B58DB0041C9D
:10A14000151C0E1C04A800212022FBF7A5FE2F7869
:10A150000323201C311C2A1C7FB20493FFF7DDFF70
:10A160002B1D201C211C04AA00970393FFF70DFF51
:10A17000201C211C321C2B1CFFF7BFFF2A1C843221
:10A180000097201C211C039BFFF7E6FE0DB0F0BDDD
:10A19000F0B597B00491039300269E57051C311C1F
:10A1A000101C141CFFF769FD002800D096E006A8DB
:10A1B0000499039AFFF7B1FF039B0EA8291C06AA76
:10A1C000FFF79BFF06A8011C039AFFF7A6FF049860
:10A1D000039B011C221CFFF790FF201C211C039AEB
:10A1E000FFF79BFF039F281C0437291C221C3B1CE4
:10A1F0000096FFF7B1FE201C211C221C3B1C009680
:10A20000FFF7AAFE201C291C221C3B1C0096FFF70E
:10A21000BCFE281C291C221C039BFFF76EFF201C80
:10A22000291C2A1C3B1C0096FFF796FE281C291CA3
:10A230000096221C3B1CFFF78FFE2968281CC907CB
:10A2400013D53A1C331C291CFFF7DAFB311C05908F
:10A25000281CFFF753FE224A0599B3189B00EB1800
:10A26000CA0719680A431A6002E0311CFFF746FE6C
:10A27000201C291C039AFFF750FF201C211C0EAA4A
:10A280003B1C0096FFF781FE201C211C0EAA3B1CE4
:10A290000096FFF77AFE0EA8011C221C3B1C0096BC
:10A2A000FFF773FE281C291C0EAA039BFFF725FF4E
:10A2B00006A8021C3B1C291C0096FFF766FE281C02
:10A2C000211C321CFFF716FD201C0499321CFFF7DD
:10A2D00011FD049806A9321CFFF70CFD17B0F0BD64
:10A2E000FFFFFF3FF0B58DB01E1C129B0290039143
:10A2F000129F00255D570437141C3B1C04A8111C39
:10A300000095029AFFF741FE04A8011C129AFFF77C
:10A3100004FF029804AA011C129BFFF7EEFE201C0A
:10A32000211C04AA129BFFF7E8FE3B1C301C311CC9
:10A33000039A0095FFF729FE04A8311C129AFFF733
:10A34000ECFE04A8011C029A3B1C0095FFF71DFEC1
:10A3500004A8011C221C3B1C0095FFF716FE201CC4
:10A36000211C029A3B1C0095FFF70FFE0398221C4C
:10A37000011C129BFFF7C1FE201C029904AA3B1C82
:10A380000095FFF702FE301C311C221C129BFFF7C8
:10A39000B4FE301C311C039A3B1C0095FFF7F5FD01
:10A3A000201C04A92A1CFFF7A5FC0DB0F0BDF0B5D8
:10A3B00089B01C1C071C0D1C161C6846111C1A1C9D
:10A3C000FFF7ABFE381C391C6A46231CFFF795FECD
:10A3D00068466946321C231CFFF78FFE281C291C87
:10A3E0006A46231CFFF789FE09B0F0BDF0B5061CD4
:10A3F000A1B00F1C081C191C151C1C1CFFF73DFCF0
:10A40000002804D0301C211CFFF7E5FB74E06846EF
:10A41000391C221CFFF76EFC08A8291C221CFFF720
:10A4200069FC10A8211CFFF7D6FB012318A8211CEA
:10A430001093FFF7D0FB684608A9221CFFF7C9FA62
:10A44000002854D0009A01231A4204D16846211CE6
:10A45000FFF754FD26E0089A1A4204D108A8211CEF
:10A46000FFF74CFD3DE000281EDD08AA6946231CCD
:10A470006846FFF7F5FA6846211CFFF73FFD10A874
:10A4800018A9221CFFF7A5FA002805DA10A8011C5C
:10A490002A1C231CFFF7B4FA10A8011C18AA231CBD
:10A4A000FFF7DEFA10A81DE008A86A46011C231C6D
:10A4B000FFF7D6FA08A8211CFFF720FD18A810A95D
:10A4C000221CFFF786FA002805DA18A8011C2A1CAE
:10A4D000231CFFF795FA18A8011C10AA231CFFF7EC
:10A4E000BFFA18A8291C221CFFF716FDA3E7301C91
:10A4F00010A9221CFFF7FEFB21B0F0BD00487047F9
:10A5000034AB0300F0B5EFB00892749A099012785A
:10A5100006910392749A1C1C0223D35E00261F33FB
:10A52000DA17D20ED3185B115BB20493013B9B0088
:10A530000593059A26ABD6504EAF749B56ADD651B7
:10A54000565101229A56211C381CFFF73BFA749B86
:10A5500001229A56281CA118FFF734FA039A381CD6
:10A5600054B2211CFFF789FB0390B04200D01EE1DA
:10A57000281C211CFFF781FB039E0790002800D0B8
:10A5800015E1749B391C2433181C049A0393FFF7BC
:10A5900020FA079E012800D009E10398291C049A9B
:10A5A000FFF717FA079E012800D000E1291C1EA81A
:10A5B000039A049BFFF71AFF079B059A0EAE93516F
:10A5C000301C0699089A749BFFF711FB049A301C03
:10A5D000311C0092039B1EAAFFF77CFD049B5EAD1D
:10A5E000391C009316A8039B1EAAFFF773FD281CB5
:10A5F0000999221CFFF77EFBA200099BAF1899184E
:10A600000592381C221CFFF775FB749A36A8443259
:10A61000111C0892221CFFF76DFB211C749B10314A
:10A620008900591804313EA8221CFFF763FB749A75
:10A63000291C043206921EA836AA069B0094FFF736
:10A64000A4FC749B2A1C009336A83EA93B1CFFF770
:10A6500049FE1EA8011C069A231CFFF7C7FE281CF2
:10A66000391C1EAA749BFFF7A2FE079A089B0A9248
:10A67000099A301C04990B930C920D95FFF716FB69
:10A680000499051C16A8FFF711FB061CA84200DA66
:10A690002E1CB6B2751E2DB2291C0EA8FFF7FCFAAF
:10A6A000071C291C781E874116A8FFF7F5FA431EE0
:10A6B0009841400007430AABBF00FD5826A8291C5B
:10A6C000221CFFF717FB059B2EA8E918221CFFF799
:10A6D00011FB1EA8211CFFF77EFA01231E93023EE8
:10A6E000B6B235B2002D43DB749B1EAAA4331F689B
:10A6F00026A8749B2EA9B847291C0EA8FFF7CCFAF0
:10A70000071C781E8741291C16A8FFF7C5FA431EAF
:10A71000984140000743BF000AABFD58002D25D0EB
:10A7200036A8291C221CFFF7E5FA059A3EA8A918AD
:10A73000221CFFF7DFFA36A83EA91EAA749BFFF77A
:10A7400036FE46A826A936AA069B0094FFF71DFCF4
:10A75000749B36A800933EA926AA2EABFFF7C2FD34
:10A760001EA8011C46AA749BFFF7C7FC013EB7E771
:10A770001EA8011C069A231CFFF738FE26A82EA946
:10A780001EAA749BFFF713FE039826A9049AFFF7ED
:10A7900020F9012805D026A8011C039A049BFFF785
:10A7A0005FF926A84EA9221CFFF796FB061C301C59
:10A7B0006FB0F0BD02B4714649084900095C490018
:10A7C0008E4402BC7047C04603B47146490840003D
:10A7D0004900095A49008E4403BC70479140031C4C
:10A7E00090409C46203A9340194352426346D340DE
:10A7F0001943704730B50023934208D0C55C01333C
:10A80000CC18013C2478A542F6D0281B00E000209B
:10A8100030BD10B50023934203D0CC5CC454013347
:10A82000F9E710BD0023C25C0133002AFBD1581E9A
:10A8300070470000F8B5C046F8BC08BC9E4670479B
:10A84000F8B5C046F8BC08BC9E46704743000000FF
:10A85000E0250020982F8A4291443771CFFBC0B584
:10A86000A5DBB5E95BC25639F111F159A4823F92DB
:10A87000D55E1CAB98AA07D8015B8312BE85312434
:10A88000C37D0C55745DBE72FEB1DE80A706DC9BF5
:10A8900074F19BC1C1699BE48647BEEFC69DC10FA1
:10A8A000CCA10C246F2CE92DAA84744ADCA9B05CDD
:10A8B000DA88F97652513E986DC631A8C82703B0A0
:10A8C000C77F59BFF30BE0C64791A7D55163CA06AE
:10A8D00067292914850AB72738211B2EFC6D2C4DBA
:10A8E000130D385354730A65BB0A6A762EC9C281A8
:10A8F000852C7292A1E8BFA24B661AA8708B4BC23E
:10A90000A3516CC719E892D1240699D685350EF467
:10A9100070A06A1016C1A419086C371E4C7748271E
:10A92000B5BCB034B30C1C394AAAD84E4FCA9C5B94
:10A93000F36F2E68EE828F746F63A5781478C884E5
:10A940000802C78CFAFFBE90EB6C50A4F7A3F9BEC7
:10A95000F27871C616161718B8270020C4270020F1
:10A9600020000000010000000000000050EADA3082
:10A970008883B89F604F15F30000C98E010000075F
:10A980004466755461726700011104FC0400000004
:10A9900000000000021104FC0400000000000000A0
:10A9A000032104FC0404000000000000041101FF66
:10A9B0000100000000000000051102FE040000007C
:10A9C00000000000061104FC04000000000000006C
:10A9D000071104FC0400000000000000081701FF3C
:10A9E0002200000088AA0300091001FF01000000F6
:10A9F00030AA03000000000000000000000000007A
:10AA0000011101FF0100000000000000021702FE1A
:10AA10006400000088A90300031704FC0400000080
:10AA2000ACAA0300000000000000000000000000CD
:10AA300000000000010700007000000000AA0300F1
:10AA400002010000010000000000000003050000FA
:10AA500041000000000000000000000000000000B5
:10AA600000000000011704FC7000000000AA0300B1
:10AA7000021704FCB400000034AA03000000000028
:10AA800000000000000000000101000001000000C3
:10AA9000000000000205000021000000000000008E
:10AAA00000000000000000000000000001010000A4
:10AAB0000400000000000000000000000000000092
:10AAC000000000009A3E3AFB40B49DF6DB68F9595D
:10AAD0000F19A65E9EB88815264C0D90CEF15852DF
:10AAE000DAA7840FCAA0FA7ABD904DA2EC286EDED8
:10AAF000F35BD0F1228A964B82BD3059E410C4D664
:10AB0000732BD3D0C4AA030040000000442E0020C1
:10AB10000D890300B7880300EF8D0300738E0300D7
:10AB2000BF8E030003880300C5870300858D0300E3
:10AB30000000000008200001FFFFFFFFFFFFFFFFF4
:10AB4000FFFFFFFF00000000000000000000000009
:10AB500001000000FFFFFFFF512563FCC2CAB9F3EB
:10AB6000849E17A7ADFAE6BCFFFFFFFFFFFFFFFFC4
:10AB700000000000FFFFFFFF96C298D84539A1F4FE
:10AB8000A033EB2D817D0377F240A463E5E6BCF8AA
:10AB900047422CE1F2D1176BF551BF376840B6CB75
:10ABA000CE5E316B5733CE2B169E0F7C4AEBE78E71
:10ABB0009B7F1AFEE242E34F4B60D2273E3CCE3BE6
:10ABC000F6B053CCB0061D65BC86987655BDEBB388
:10ABD000E7933AAAD835C65A91A103003BA10300D6
:08ABE0000D9D030000000000C0
:08ABE80094B1FF7F01000000A1
:10ABF0000000000000000000000000000000000055
:10AC00000000000000000000000000000000000044
:10AC10004CA803000000000000000000000000003D
:10AC20000000000000000000000000000000000024
:10AC30000000000000000000000000000000000014
:10AC40000000000000000000000000000000000004
:10AC5000FFFF01000024F400415D0300155D0300C7
:04AC600000000000F0
:10AC640000100000000C04007593030000000000B5
:08AC74003D7903008173030028
:020000020000FC
:020000041000EA
:04101400005C030079
:0400000330008EC972
:00000001FF
